{
  "_format": "hh-sol-artifact-1",
  "contractName": "LockWithReward",
  "sourceName": "contracts/LockWithReward.sol",
  "abi": [
    {
      "inputs": [
        {
          "internalType": "address",
          "name": "_underlying",
          "type": "address"
        },
        {
          "internalType": "address",
          "name": "_rewardToken",
          "type": "address"
        },
        {
          "internalType": "uint256",
          "name": "_startTime",
          "type": "uint256"
        },
        {
          "internalType": "uint256",
          "name": "_endTime",
          "type": "uint256"
        }
      ],
      "stateMutability": "nonpayable",
      "type": "constructor"
    },
    {
      "inputs": [],
      "name": "AccessControlBadConfirmation",
      "type": "error"
    },
    {
      "inputs": [
        {
          "internalType": "address",
          "name": "account",
          "type": "address"
        },
        {
          "internalType": "bytes32",
          "name": "neededRole",
          "type": "bytes32"
        }
      ],
      "name": "AccessControlUnauthorizedAccount",
      "type": "error"
    },
    {
      "inputs": [
        {
          "internalType": "address",
          "name": "owner",
          "type": "address"
        }
      ],
      "name": "OwnableInvalidOwner",
      "type": "error"
    },
    {
      "inputs": [
        {
          "internalType": "address",
          "name": "account",
          "type": "address"
        }
      ],
      "name": "OwnableUnauthorizedAccount",
      "type": "error"
    },
    {
      "anonymous": false,
      "inputs": [
        {
          "indexed": true,
          "internalType": "address",
          "name": "previousOwner",
          "type": "address"
        },
        {
          "indexed": true,
          "internalType": "address",
          "name": "newOwner",
          "type": "address"
        }
      ],
      "name": "OwnershipTransferred",
      "type": "event"
    },
    {
      "anonymous": false,
      "inputs": [
        {
          "indexed": true,
          "internalType": "bytes32",
          "name": "role",
          "type": "bytes32"
        },
        {
          "indexed": true,
          "internalType": "bytes32",
          "name": "previousAdminRole",
          "type": "bytes32"
        },
        {
          "indexed": true,
          "internalType": "bytes32",
          "name": "newAdminRole",
          "type": "bytes32"
        }
      ],
      "name": "RoleAdminChanged",
      "type": "event"
    },
    {
      "anonymous": false,
      "inputs": [
        {
          "indexed": true,
          "internalType": "bytes32",
          "name": "role",
          "type": "bytes32"
        },
        {
          "indexed": true,
          "internalType": "address",
          "name": "account",
          "type": "address"
        },
        {
          "indexed": true,
          "internalType": "address",
          "name": "sender",
          "type": "address"
        }
      ],
      "name": "RoleGranted",
      "type": "event"
    },
    {
      "anonymous": false,
      "inputs": [
        {
          "indexed": true,
          "internalType": "bytes32",
          "name": "role",
          "type": "bytes32"
        },
        {
          "indexed": true,
          "internalType": "address",
          "name": "account",
          "type": "address"
        },
        {
          "indexed": true,
          "internalType": "address",
          "name": "sender",
          "type": "address"
        }
      ],
      "name": "RoleRevoked",
      "type": "event"
    },
    {
      "inputs": [],
      "name": "ADMIN_ROLE",
      "outputs": [
        {
          "internalType": "bytes32",
          "name": "",
          "type": "bytes32"
        }
      ],
      "stateMutability": "view",
      "type": "function"
    },
    {
      "inputs": [],
      "name": "DEFAULT_ADMIN_ROLE",
      "outputs": [
        {
          "internalType": "bytes32",
          "name": "",
          "type": "bytes32"
        }
      ],
      "stateMutability": "view",
      "type": "function"
    },
    {
      "inputs": [
        {
          "internalType": "address",
          "name": "",
          "type": "address"
        },
        {
          "internalType": "uint256",
          "name": "",
          "type": "uint256"
        }
      ],
      "name": "balances",
      "outputs": [
        {
          "internalType": "uint256",
          "name": "amount",
          "type": "uint256"
        },
        {
          "internalType": "uint256",
          "name": "lockTime",
          "type": "uint256"
        }
      ],
      "stateMutability": "view",
      "type": "function"
    },
    {
      "inputs": [],
      "name": "claimAndWithdraw",
      "outputs": [],
      "stateMutability": "nonpayable",
      "type": "function"
    },
    {
      "inputs": [],
      "name": "endTime",
      "outputs": [
        {
          "internalType": "uint256",
          "name": "",
          "type": "uint256"
        }
      ],
      "stateMutability": "view",
      "type": "function"
    },
    {
      "inputs": [],
      "name": "getClaimable",
      "outputs": [
        {
          "internalType": "uint256",
          "name": "",
          "type": "uint256"
        }
      ],
      "stateMutability": "view",
      "type": "function"
    },
    {
      "inputs": [
        {
          "internalType": "bytes32",
          "name": "role",
          "type": "bytes32"
        }
      ],
      "name": "getRoleAdmin",
      "outputs": [
        {
          "internalType": "bytes32",
          "name": "",
          "type": "bytes32"
        }
      ],
      "stateMutability": "view",
      "type": "function"
    },
    {
      "inputs": [
        {
          "internalType": "bytes32",
          "name": "role",
          "type": "bytes32"
        },
        {
          "internalType": "address",
          "name": "account",
          "type": "address"
        }
      ],
      "name": "grantRole",
      "outputs": [],
      "stateMutability": "nonpayable",
      "type": "function"
    },
    {
      "inputs": [
        {
          "internalType": "bytes32",
          "name": "role",
          "type": "bytes32"
        },
        {
          "internalType": "address",
          "name": "account",
          "type": "address"
        }
      ],
      "name": "hasRole",
      "outputs": [
        {
          "internalType": "bool",
          "name": "",
          "type": "bool"
        }
      ],
      "stateMutability": "view",
      "type": "function"
    },
    {
      "inputs": [],
      "name": "level1AmountThreshold",
      "outputs": [
        {
          "internalType": "uint256",
          "name": "",
          "type": "uint256"
        }
      ],
      "stateMutability": "view",
      "type": "function"
    },
    {
      "inputs": [],
      "name": "level1LockTime",
      "outputs": [
        {
          "internalType": "uint256",
          "name": "",
          "type": "uint256"
        }
      ],
      "stateMutability": "view",
      "type": "function"
    },
    {
      "inputs": [],
      "name": "level2AmountThreshold",
      "outputs": [
        {
          "internalType": "uint256",
          "name": "",
          "type": "uint256"
        }
      ],
      "stateMutability": "view",
      "type": "function"
    },
    {
      "inputs": [],
      "name": "level2LockTime",
      "outputs": [
        {
          "internalType": "uint256",
          "name": "",
          "type": "uint256"
        }
      ],
      "stateMutability": "view",
      "type": "function"
    },
    {
      "inputs": [
        {
          "internalType": "uint256",
          "name": "_amount",
          "type": "uint256"
        }
      ],
      "name": "lock",
      "outputs": [
        {
          "internalType": "uint256",
          "name": "",
          "type": "uint256"
        }
      ],
      "stateMutability": "nonpayable",
      "type": "function"
    },
    {
      "inputs": [],
      "name": "lockIdCounter",
      "outputs": [
        {
          "internalType": "uint256",
          "name": "",
          "type": "uint256"
        }
      ],
      "stateMutability": "view",
      "type": "function"
    },
    {
      "inputs": [],
      "name": "owner",
      "outputs": [
        {
          "internalType": "address",
          "name": "",
          "type": "address"
        }
      ],
      "stateMutability": "view",
      "type": "function"
    },
    {
      "inputs": [],
      "name": "renounceOwnership",
      "outputs": [],
      "stateMutability": "nonpayable",
      "type": "function"
    },
    {
      "inputs": [
        {
          "internalType": "bytes32",
          "name": "role",
          "type": "bytes32"
        },
        {
          "internalType": "address",
          "name": "callerConfirmation",
          "type": "address"
        }
      ],
      "name": "renounceRole",
      "outputs": [],
      "stateMutability": "nonpayable",
      "type": "function"
    },
    {
      "inputs": [
        {
          "internalType": "bytes32",
          "name": "role",
          "type": "bytes32"
        },
        {
          "internalType": "address",
          "name": "account",
          "type": "address"
        }
      ],
      "name": "revokeRole",
      "outputs": [],
      "stateMutability": "nonpayable",
      "type": "function"
    },
    {
      "inputs": [],
      "name": "rewardToken",
      "outputs": [
        {
          "internalType": "contract IERC20Metadata",
          "name": "",
          "type": "address"
        }
      ],
      "stateMutability": "view",
      "type": "function"
    },
    {
      "inputs": [
        {
          "internalType": "uint256",
          "name": "_level1AmountThreshold",
          "type": "uint256"
        },
        {
          "internalType": "uint256",
          "name": "_level2AmountThreshold",
          "type": "uint256"
        }
      ],
      "name": "setLevelAmountThreshold",
      "outputs": [],
      "stateMutability": "nonpayable",
      "type": "function"
    },
    {
      "inputs": [
        {
          "internalType": "uint256",
          "name": "_level1LockTime",
          "type": "uint256"
        },
        {
          "internalType": "uint256",
          "name": "_level2LockTime",
          "type": "uint256"
        }
      ],
      "name": "setLevelLockTime",
      "outputs": [],
      "stateMutability": "nonpayable",
      "type": "function"
    },
    {
      "inputs": [
        {
          "internalType": "uint256",
          "name": "_startTime",
          "type": "uint256"
        },
        {
          "internalType": "uint256",
          "name": "_endTime",
          "type": "uint256"
        }
      ],
      "name": "setTime",
      "outputs": [],
      "stateMutability": "nonpayable",
      "type": "function"
    },
    {
      "inputs": [],
      "name": "startTime",
      "outputs": [
        {
          "internalType": "uint256",
          "name": "",
          "type": "uint256"
        }
      ],
      "stateMutability": "view",
      "type": "function"
    },
    {
      "inputs": [
        {
          "internalType": "bytes4",
          "name": "interfaceId",
          "type": "bytes4"
        }
      ],
      "name": "supportsInterface",
      "outputs": [
        {
          "internalType": "bool",
          "name": "",
          "type": "bool"
        }
      ],
      "stateMutability": "view",
      "type": "function"
    },
    {
      "inputs": [],
      "name": "totalLockedAmount",
      "outputs": [
        {
          "internalType": "uint256",
          "name": "",
          "type": "uint256"
        }
      ],
      "stateMutability": "view",
      "type": "function"
    },
    {
      "inputs": [
        {
          "internalType": "address",
          "name": "newOwner",
          "type": "address"
        }
      ],
      "name": "transferOwnership",
      "outputs": [],
      "stateMutability": "nonpayable",
      "type": "function"
    },
    {
      "inputs": [],
      "name": "underlying",
      "outputs": [
        {
          "internalType": "contract IERC20Metadata",
          "name": "",
          "type": "address"
        }
      ],
      "stateMutability": "view",
      "type": "function"
    },
    {
      "inputs": [],
      "name": "withdraw",
      "outputs": [],
      "stateMutability": "nonpayable",
      "type": "function"
    }
  ],
  "bytecode": "0x608060405260006006553480156200001657600080fd5b5060405162003b9238038062003b9283398181016040528101906200003c919062000826565b33600073ffffffffffffffffffffffffffffffffffffffff168173ffffffffffffffffffffffffffffffffffffffff1603620000b25760006040517f1e4fbdf7000000000000000000000000000000000000000000000000000000008152600401620000a99190620008a9565b60405180910390fd5b620000c3816200054760201b60201c565b50600073ffffffffffffffffffffffffffffffffffffffff163373ffffffffffffffffffffffffffffffffffffffff160362000136576040517f08c379a00000000000000000000000000000000000000000000000000000000081526004016200012d9062000927565b60405180910390fd5b600073ffffffffffffffffffffffffffffffffffffffff168473ffffffffffffffffffffffffffffffffffffffff1603620001a8576040517f08c379a00000000000000000000000000000000000000000000000000000000081526004016200019f90620009bf565b60405180910390fd5b600073ffffffffffffffffffffffffffffffffffffffff168373ffffffffffffffffffffffffffffffffffffffff16036200021a576040517f08c379a0000000000000000000000000000000000000000000000000000000008152600401620002119062000a57565b60405180910390fd5b8273ffffffffffffffffffffffffffffffffffffffff168473ffffffffffffffffffffffffffffffffffffffff16036200028b576040517f08c379a0000000000000000000000000000000000000000000000000000000008152600401620002829062000aef565b60405180910390fd5b808210620002d0576040517f08c379a0000000000000000000000000000000000000000000000000000000008152600401620002c79062000b87565b60405180910390fd5b80421062000315576040517f08c379a00000000000000000000000000000000000000000000000000000000081526004016200030c9062000bf9565b60405180910390fd5b6200032a6000801b336200060b60201b60201c565b5083600260006101000a81548173ffffffffffffffffffffffffffffffffffffffff021916908373ffffffffffffffffffffffffffffffffffffffff16021790555082600360006101000a81548173ffffffffffffffffffffffffffffffffffffffff021916908373ffffffffffffffffffffffffffffffffffffffff1602179055508160048190555080600581905550600260009054906101000a900473ffffffffffffffffffffffffffffffffffffffff1673ffffffffffffffffffffffffffffffffffffffff1663313ce5676040518163ffffffff1660e01b8152600401602060405180830381865afa15801562000429573d6000803e3d6000fd5b505050506040513d601f19601f820116820180604052508101906200044f919062000c59565b600a6200045d919062000e0e565b6101f46200046c919062000e5f565b600781905550600260009054906101000a900473ffffffffffffffffffffffffffffffffffffffff1673ffffffffffffffffffffffffffffffffffffffff1663313ce5676040518163ffffffff1660e01b8152600401602060405180830381865afa158015620004e0573d6000803e3d6000fd5b505050506040513d601f19601f8201168201806040525081019062000506919062000c59565b600a62000514919062000e0e565b6107d062000523919062000e5f565b600881905550620d2f00600981905550621a5e00600a819055505050505062000eaa565b60008060009054906101000a900473ffffffffffffffffffffffffffffffffffffffff169050816000806101000a81548173ffffffffffffffffffffffffffffffffffffffff021916908373ffffffffffffffffffffffffffffffffffffffff1602179055508173ffffffffffffffffffffffffffffffffffffffff168173ffffffffffffffffffffffffffffffffffffffff167f8be0079c531659141344cd1fd0a4f28419497f9722a3daafe3b4186f6b6457e060405160405180910390a35050565b60006200061f83836200070e60201b60201c565b6200070357600180600085815260200190815260200160002060000160008473ffffffffffffffffffffffffffffffffffffffff1673ffffffffffffffffffffffffffffffffffffffff16815260200190815260200160002060006101000a81548160ff0219169083151502179055506200069f6200077960201b60201c565b73ffffffffffffffffffffffffffffffffffffffff168273ffffffffffffffffffffffffffffffffffffffff16847f2f8788117e7eff1d82e926ec794901d17c78024a50270940304540a733656f0d60405160405180910390a46001905062000708565b600090505b92915050565b60006001600084815260200190815260200160002060000160008373ffffffffffffffffffffffffffffffffffffffff1673ffffffffffffffffffffffffffffffffffffffff16815260200190815260200160002060009054906101000a900460ff16905092915050565b600033905090565b600080fd5b600073ffffffffffffffffffffffffffffffffffffffff82169050919050565b6000620007b38262000786565b9050919050565b620007c581620007a6565b8114620007d157600080fd5b50565b600081519050620007e581620007ba565b92915050565b6000819050919050565b6200080081620007eb565b81146200080c57600080fd5b50565b6000815190506200082081620007f5565b92915050565b6000806000806080858703121562000843576200084262000781565b5b60006200085387828801620007d4565b94505060206200086687828801620007d4565b935050604062000879878288016200080f565b92505060606200088c878288016200080f565b91505092959194509250565b620008a381620007a6565b82525050565b6000602082019050620008c0600083018462000898565b92915050565b600082825260208201905092915050565b7f53656e64657220616464726573732063616e6e6f74206265207a65726f000000600082015250565b60006200090f601d83620008c6565b91506200091c82620008d7565b602082019050919050565b60006020820190508181036000830152620009428162000900565b9050919050565b7f556e6465726c79696e6720616464726573732063616e6e6f74206265207a657260008201527f6f00000000000000000000000000000000000000000000000000000000000000602082015250565b6000620009a7602183620008c6565b9150620009b48262000949565b604082019050919050565b60006020820190508181036000830152620009da8162000998565b9050919050565b7f52657761726420546f6b656e20616464726573732063616e6e6f74206265207a60008201527f65726f0000000000000000000000000000000000000000000000000000000000602082015250565b600062000a3f602383620008c6565b915062000a4c82620009e1565b604082019050919050565b6000602082019050818103600083015262000a728162000a30565b9050919050565b7f556e6465726c79696e6720616e642052657761726420546f6b656e2063616e6e60008201527f6f74206265207468652073616d65000000000000000000000000000000000000602082015250565b600062000ad7602e83620008c6565b915062000ae48262000a79565b604082019050919050565b6000602082019050818103600083015262000b0a8162000ac8565b9050919050565b7f53746172742054696d652073686f756c64206265206561726c6965722074686160008201527f6e20656e642074696d6500000000000000000000000000000000000000000000602082015250565b600062000b6f602a83620008c6565b915062000b7c8262000b11565b604082019050919050565b6000602082019050818103600083015262000ba28162000b60565b9050919050565b7f456e642074696d652073686f756c6420626520696e2074686520667574757265600082015250565b600062000be1602083620008c6565b915062000bee8262000ba9565b602082019050919050565b6000602082019050818103600083015262000c148162000bd2565b9050919050565b600060ff82169050919050565b62000c338162000c1b565b811462000c3f57600080fd5b50565b60008151905062000c538162000c28565b92915050565b60006020828403121562000c725762000c7162000781565b5b600062000c828482850162000c42565b91505092915050565b7f4e487b7100000000000000000000000000000000000000000000000000000000600052601160045260246000fd5b60008160011c9050919050565b6000808291508390505b600185111562000d195780860481111562000cf15762000cf062000c8b565b5b600185161562000d015780820291505b808102905062000d118562000cba565b945062000cd1565b94509492505050565b60008262000d34576001905062000e07565b8162000d44576000905062000e07565b816001811462000d5d576002811462000d685762000d9e565b600191505062000e07565b60ff84111562000d7d5762000d7c62000c8b565b5b8360020a91508482111562000d975762000d9662000c8b565b5b5062000e07565b5060208310610133831016604e8410600b841016171562000dd85782820a90508381111562000dd25762000dd162000c8b565b5b62000e07565b62000de7848484600162000cc7565b9250905081840481111562000e015762000e0062000c8b565b5b81810290505b9392505050565b600062000e1b82620007eb565b915062000e288362000c1b565b925062000e577fffffffffffffffffffffffffffffffffffffffffffffffffffffffffffffffff848462000d22565b905092915050565b600062000e6c82620007eb565b915062000e7983620007eb565b925082820262000e8981620007eb565b9150828204841483151762000ea35762000ea262000c8b565b5b5092915050565b612cd88062000eba6000396000f3fe608060405234801561001057600080fd5b50600436106101cf5760003560e01c80638db07fbc11610104578063cbf1304d116100a2578063e3593bc711610071578063e3593bc7146104d5578063ee28b744146104f3578063f2fde38b14610511578063f7c618c11461052d576101cf565b8063cbf1304d1461043c578063d075efdb1461046d578063d547741f14610489578063dd467064146104a5576101cf565b8063a217fddf116100de578063a217fddf146103d8578063aead9e47146103f6578063afae883e14610400578063b64ed9d71461041e576101cf565b80638db07fbc1461036e57806391d148541461038c578063a0355eca146103bc576101cf565b80633ccfd60b11610171578063715018a61161014b578063715018a61461030a57806375b238fc1461031457806378e97925146103325780638da5cb5b14610350576101cf565b80633ccfd60b146102c65780634d5aca78146102d05780636f307dc3146102ec576101cf565b8063248a9ca3116101ad578063248a9ca3146102405780632f2ff15d146102705780633197cbb61461028c57806336568abe146102aa576101cf565b806301ffc9a7146101d457806305a9f274146102045780631fa3864214610222575b600080fd5b6101ee60048036038101906101e99190611dba565b61054b565b6040516101fb9190611e02565b60405180910390f35b61020c6105c5565b6040516102199190611e36565b60405180910390f35b61022a6106b8565b6040516102379190611e36565b60405180910390f35b61025a60048036038101906102559190611e87565b6106be565b6040516102679190611ec3565b60405180910390f35b61028a60048036038101906102859190611f3c565b6106de565b005b610294610700565b6040516102a19190611e36565b60405180910390f35b6102c460048036038101906102bf9190611f3c565b610706565b005b6102ce610781565b005b6102ea60048036038101906102e59190611fa8565b610ae9565b005b6102f4610bac565b6040516103019190612047565b60405180910390f35b610312610bd2565b005b61031c610be6565b6040516103299190611ec3565b60405180910390f35b61033a610c0a565b6040516103479190611e36565b60405180910390f35b610358610c10565b6040516103659190612071565b60405180910390f35b610376610c39565b6040516103839190611e36565b60405180910390f35b6103a660048036038101906103a19190611f3c565b610c3f565b6040516103b39190611e02565b60405180910390f35b6103d660048036038101906103d19190611fa8565b610caa565b005b6103e0610db3565b6040516103ed9190611ec3565b60405180910390f35b6103fe610dba565b005b6104086111b4565b6040516104159190611e36565b60405180910390f35b6104266111ba565b6040516104339190611e36565b60405180910390f35b6104566004803603810190610451919061208c565b6111c0565b6040516104649291906120cc565b60405180910390f35b61048760048036038101906104829190611fa8565b6111f1565b005b6104a3600480360381019061049e9190611f3c565b6112b4565b005b6104bf60048036038101906104ba91906120f5565b6112d6565b6040516104cc9190611e36565b60405180910390f35b6104dd611588565b6040516104ea9190611e36565b60405180910390f35b6104fb61158e565b6040516105089190611e36565b60405180910390f35b61052b60048036038101906105269190612122565b611613565b005b610535611699565b6040516105429190612047565b60405180910390f35b60007f7965db0b000000000000000000000000000000000000000000000000000000007bffffffffffffffffffffffffffffffffffffffffffffffffffffffff1916827bffffffffffffffffffffffffffffffffffffffffffffffffffffffff191614806105be57506105bd826116bf565b5b9050919050565b600080600090506000600c60003373ffffffffffffffffffffffffffffffffffffffff1673ffffffffffffffffffffffffffffffffffffffff168152602001908152602001600020905060005b81805490508110156106af576000600b60003373ffffffffffffffffffffffffffffffffffffffff1673ffffffffffffffffffffffffffffffffffffffff16815260200190815260200160002060008484815481106106745761067361214f565b5b90600052602060002001548152602001908152602001600020905080600001548461069f91906121ad565b9350508080600101915050610612565b50819250505090565b600a5481565b600060016000838152602001908152602001600020600101549050919050565b6106e7826106be565b6106f081611729565b6106fa838361173d565b50505050565b60055481565b61070e61182e565b73ffffffffffffffffffffffffffffffffffffffff168173ffffffffffffffffffffffffffffffffffffffff1614610772576040517f6697b23200000000000000000000000000000000000000000000000000000000815260040160405180910390fd5b61077c8282611836565b505050565b60045442116107c5576040517f08c379a00000000000000000000000000000000000000000000000000000000081526004016107bc9061223e565b60405180910390fd5b6005544210610809576040517f08c379a0000000000000000000000000000000000000000000000000000000008152600401610800906122aa565b60405180910390fd5b6000600c60003373ffffffffffffffffffffffffffffffffffffffff1673ffffffffffffffffffffffffffffffffffffffff168152602001908152602001600020805490501161088e576040517f08c379a000000000000000000000000000000000000000000000000000000000815260040161088590612316565b60405180910390fd5b600080600c60003373ffffffffffffffffffffffffffffffffffffffff1673ffffffffffffffffffffffffffffffffffffffff168152602001908152602001600020905060005b8180549050811015610972576000600b60003373ffffffffffffffffffffffffffffffffffffffff1673ffffffffffffffffffffffffffffffffffffffff16815260200190815260200160002060008484815481106109375761093661214f565b5b90600052602060002001548152602001908152602001600020905080600001548461096291906121ad565b93505080806001019150506108d5565b5060005b8180549050811015610a05576000600b60003373ffffffffffffffffffffffffffffffffffffffff1673ffffffffffffffffffffffffffffffffffffffff16815260200190815260200160002060008484815481106109d8576109d761214f565b5b90600052602060002001548152602001908152602001600020600001819055508080600101915050610976565b50600260009054906101000a900473ffffffffffffffffffffffffffffffffffffffff1673ffffffffffffffffffffffffffffffffffffffff1663a9059cbb33846040518363ffffffff1660e01b8152600401610a63929190612336565b6020604051808303816000875af1158015610a82573d6000803e3d6000fd5b505050506040513d601f19601f82011682018060405250810190610aa6919061238b565b610ae5576040517f08c379a0000000000000000000000000000000000000000000000000000000008152600401610adc90612404565b60405180910390fd5b5050565b7fa49807205ce4d355092ef5a8a18f56e8913cf4a201fbe287825b095693c21775610b1381611729565b4260045411610b57576040517f08c379a0000000000000000000000000000000000000000000000000000000008152600401610b4e90612496565b60405180910390fd5b818310610b99576040517f08c379a0000000000000000000000000000000000000000000000000000000008152600401610b9090612528565b60405180910390fd5b8260078190555081600881905550505050565b600260009054906101000a900473ffffffffffffffffffffffffffffffffffffffff1681565b610bda611929565b610be460006119b0565b565b7fa49807205ce4d355092ef5a8a18f56e8913cf4a201fbe287825b095693c2177581565b60045481565b60008060009054906101000a900473ffffffffffffffffffffffffffffffffffffffff16905090565b60075481565b60006001600084815260200190815260200160002060000160008373ffffffffffffffffffffffffffffffffffffffff1673ffffffffffffffffffffffffffffffffffffffff16815260200190815260200160002060009054906101000a900460ff16905092915050565b7fa49807205ce4d355092ef5a8a18f56e8913cf4a201fbe287825b095693c21775610cd481611729565b4260045411610d18576040517f08c379a0000000000000000000000000000000000000000000000000000000008152600401610d0f90612496565b60405180910390fd5b8282808210610d5c576040517f08c379a0000000000000000000000000000000000000000000000000000000008152600401610d53906125ba565b60405180910390fd5b834210610d9e576040517f08c379a0000000000000000000000000000000000000000000000000000000008152600401610d9590612626565b60405180910390fd5b84600481905550836005819055505050505050565b6000801b81565b600554421015610dff576040517f08c379a0000000000000000000000000000000000000000000000000000000008152600401610df6906126b8565b60405180910390fd5b6000600c60003373ffffffffffffffffffffffffffffffffffffffff1673ffffffffffffffffffffffffffffffffffffffff1681526020019081526020016000208054905011610e84576040517f08c379a0000000000000000000000000000000000000000000000000000000008152600401610e7b9061274a565b60405180910390fd5b6000806000600c60003373ffffffffffffffffffffffffffffffffffffffff1673ffffffffffffffffffffffffffffffffffffffff168152602001908152602001600020905060005b8180549050811015610f5d57600b60003373ffffffffffffffffffffffffffffffffffffffff1673ffffffffffffffffffffffffffffffffffffffff16815260200190815260200160002060008281526020019081526020016000206000015484610f3891906121ad565b9350610f4381611a74565b83610f4e91906121ad565b92508080600101915050610ecd565b5060005b8180549050811015610ff0576000600b60003373ffffffffffffffffffffffffffffffffffffffff1673ffffffffffffffffffffffffffffffffffffffff1681526020019081526020016000206000848481548110610fc357610fc261214f565b5b90600052602060002001548152602001908152602001600020600001819055508080600101915050610f61565b50600260009054906101000a900473ffffffffffffffffffffffffffffffffffffffff1673ffffffffffffffffffffffffffffffffffffffff1663a9059cbb33856040518363ffffffff1660e01b815260040161104e929190612336565b6020604051808303816000875af115801561106d573d6000803e3d6000fd5b505050506040513d601f19601f82011682018060405250810190611091919061238b565b6110d0576040517f08c379a00000000000000000000000000000000000000000000000000000000081526004016110c7906127b6565b60405180910390fd5b600360009054906101000a900473ffffffffffffffffffffffffffffffffffffffff1673ffffffffffffffffffffffffffffffffffffffff1663a9059cbb33846040518363ffffffff1660e01b815260040161112d929190612336565b6020604051808303816000875af115801561114c573d6000803e3d6000fd5b505050506040513d601f19601f82011682018060405250810190611170919061238b565b6111af576040517f08c379a00000000000000000000000000000000000000000000000000000000081526004016111a690612822565b60405180910390fd5b505050565b60065481565b60085481565b600b602052816000526040600020602052806000526040600020600091509150508060000154908060010154905082565b7fa49807205ce4d355092ef5a8a18f56e8913cf4a201fbe287825b095693c2177561121b81611729565b426004541161125f576040517f08c379a000000000000000000000000000000000000000000000000000000000815260040161125690612496565b60405180910390fd5b8183106112a1576040517f08c379a0000000000000000000000000000000000000000000000000000000008152600401611298906128b4565b60405180910390fd5b8260098190555081600a81905550505050565b6112bd826106be565b6112c681611729565b6112d08383611836565b50505050565b6000600454421161131c576040517f08c379a00000000000000000000000000000000000000000000000000000000081526004016113139061223e565b60405180910390fd5b6005544210611360576040517f08c379a0000000000000000000000000000000000000000000000000000000008152600401611357906122aa565b60405180910390fd5b600082116113a3576040517f08c379a000000000000000000000000000000000000000000000000000000000815260040161139a90612920565b60405180910390fd5b600260009054906101000a900473ffffffffffffffffffffffffffffffffffffffff1673ffffffffffffffffffffffffffffffffffffffff166323b872dd3330856040518463ffffffff1660e01b815260040161140293929190612940565b6020604051808303816000875af1158015611421573d6000803e3d6000fd5b505050506040513d601f19601f82011682018060405250810190611445919061238b565b611484576040517f08c379a000000000000000000000000000000000000000000000000000000000815260040161147b90612404565b60405180910390fd5b604051806040016040528083815260200142815250600b60003373ffffffffffffffffffffffffffffffffffffffff1673ffffffffffffffffffffffffffffffffffffffff168152602001908152602001600020600060065481526020019081526020016000206000820151816000015560208201518160010155905050600c60003373ffffffffffffffffffffffffffffffffffffffff1673ffffffffffffffffffffffffffffffffffffffff16815260200190815260200160002060065490806001815401808255809150506001900390600052602060002001600090919091909150556006600081548092919061157d90612977565b919050559050919050565b60095481565b600080600090506000600c60003373ffffffffffffffffffffffffffffffffffffffff1673ffffffffffffffffffffffffffffffffffffffff168152602001908152602001600020905060005b818054905081101561160a576115f081611a74565b836115fb91906121ad565b925080806001019150506115db565b50819250505090565b61161b611929565b600073ffffffffffffffffffffffffffffffffffffffff168173ffffffffffffffffffffffffffffffffffffffff160361168d5760006040517f1e4fbdf70000000000000000000000000000000000000000000000000000000081526004016116849190612071565b60405180910390fd5b611696816119b0565b50565b600360009054906101000a900473ffffffffffffffffffffffffffffffffffffffff1681565b60007f01ffc9a7000000000000000000000000000000000000000000000000000000007bffffffffffffffffffffffffffffffffffffffffffffffffffffffff1916827bffffffffffffffffffffffffffffffffffffffffffffffffffffffff1916149050919050565b61173a8161173561182e565b611d0c565b50565b60006117498383610c3f565b61182357600180600085815260200190815260200160002060000160008473ffffffffffffffffffffffffffffffffffffffff1673ffffffffffffffffffffffffffffffffffffffff16815260200190815260200160002060006101000a81548160ff0219169083151502179055506117c061182e565b73ffffffffffffffffffffffffffffffffffffffff168273ffffffffffffffffffffffffffffffffffffffff16847f2f8788117e7eff1d82e926ec794901d17c78024a50270940304540a733656f0d60405160405180910390a460019050611828565b600090505b92915050565b600033905090565b60006118428383610c3f565b1561191e5760006001600085815260200190815260200160002060000160008473ffffffffffffffffffffffffffffffffffffffff1673ffffffffffffffffffffffffffffffffffffffff16815260200190815260200160002060006101000a81548160ff0219169083151502179055506118bb61182e565b73ffffffffffffffffffffffffffffffffffffffff168273ffffffffffffffffffffffffffffffffffffffff16847ff6391f5c32d9c69d2a47ea670b442974b53935d1edc7fd64eb21e047a839171b60405160405180910390a460019050611923565b600090505b92915050565b61193161182e565b73ffffffffffffffffffffffffffffffffffffffff1661194f610c10565b73ffffffffffffffffffffffffffffffffffffffff16146119ae5761197261182e565b6040517f118cdaa70000000000000000000000000000000000000000000000000000000081526004016119a59190612071565b60405180910390fd5b565b60008060009054906101000a900473ffffffffffffffffffffffffffffffffffffffff169050816000806101000a81548173ffffffffffffffffffffffffffffffffffffffff021916908373ffffffffffffffffffffffffffffffffffffffff1602179055508173ffffffffffffffffffffffffffffffffffffffff168173ffffffffffffffffffffffffffffffffffffffff167f8be0079c531659141344cd1fd0a4f28419497f9722a3daafe3b4186f6b6457e060405160405180910390a35050565b600080600b60003373ffffffffffffffffffffffffffffffffffffffff1673ffffffffffffffffffffffffffffffffffffffff168152602001908152602001600020600084815260200190815260200160002090506000600260009054906101000a900473ffffffffffffffffffffffffffffffffffffffff1673ffffffffffffffffffffffffffffffffffffffff1663313ce5676040518163ffffffff1660e01b8152600401602060405180830381865afa158015611b38573d6000803e3d6000fd5b505050506040513d601f19601f82011682018060405250810190611b5c91906129f8565b600a611b689190612b58565b600360009054906101000a900473ffffffffffffffffffffffffffffffffffffffff1673ffffffffffffffffffffffffffffffffffffffff1663313ce5676040518163ffffffff1660e01b8152600401602060405180830381865afa158015611bd5573d6000803e3d6000fd5b505050506040513d601f19601f82011682018060405250810190611bf991906129f8565b600a611c059190612b58565b8360000154611c149190612ba3565b611c1e9190612c14565b905060085482600001541115611c4e576004600782611c3d9190612ba3565b611c479190612c14565b9050611c79565b60075482600001541115611c78576002600382611c6b9190612ba3565b611c759190612c14565b90505b5b600a548260010154600554611c8e9190612c45565b1115611cbf576064601e82611ca39190612ba3565b611cad9190612c14565b81611cb891906121ad565b9050611d02565b6009548260010154600554611cd49190612c45565b1115611d01576064601482611ce99190612ba3565b611cf39190612c14565b81611cfe91906121ad565b90505b5b8092505050919050565b611d168282610c3f565b611d595780826040517fe2517d3f000000000000000000000000000000000000000000000000000000008152600401611d50929190612c79565b60405180910390fd5b5050565b600080fd5b60007fffffffff0000000000000000000000000000000000000000000000000000000082169050919050565b611d9781611d62565b8114611da257600080fd5b50565b600081359050611db481611d8e565b92915050565b600060208284031215611dd057611dcf611d5d565b5b6000611dde84828501611da5565b91505092915050565b60008115159050919050565b611dfc81611de7565b82525050565b6000602082019050611e176000830184611df3565b92915050565b6000819050919050565b611e3081611e1d565b82525050565b6000602082019050611e4b6000830184611e27565b92915050565b6000819050919050565b611e6481611e51565b8114611e6f57600080fd5b50565b600081359050611e8181611e5b565b92915050565b600060208284031215611e9d57611e9c611d5d565b5b6000611eab84828501611e72565b91505092915050565b611ebd81611e51565b82525050565b6000602082019050611ed86000830184611eb4565b92915050565b600073ffffffffffffffffffffffffffffffffffffffff82169050919050565b6000611f0982611ede565b9050919050565b611f1981611efe565b8114611f2457600080fd5b50565b600081359050611f3681611f10565b92915050565b60008060408385031215611f5357611f52611d5d565b5b6000611f6185828601611e72565b9250506020611f7285828601611f27565b9150509250929050565b611f8581611e1d565b8114611f9057600080fd5b50565b600081359050611fa281611f7c565b92915050565b60008060408385031215611fbf57611fbe611d5d565b5b6000611fcd85828601611f93565b9250506020611fde85828601611f93565b9150509250929050565b6000819050919050565b600061200d61200861200384611ede565b611fe8565b611ede565b9050919050565b600061201f82611ff2565b9050919050565b600061203182612014565b9050919050565b61204181612026565b82525050565b600060208201905061205c6000830184612038565b92915050565b61206b81611efe565b82525050565b60006020820190506120866000830184612062565b92915050565b600080604083850312156120a3576120a2611d5d565b5b60006120b185828601611f27565b92505060206120c285828601611f93565b9150509250929050565b60006040820190506120e16000830185611e27565b6120ee6020830184611e27565b9392505050565b60006020828403121561210b5761210a611d5d565b5b600061211984828501611f93565b91505092915050565b60006020828403121561213857612137611d5d565b5b600061214684828501611f27565b91505092915050565b7f4e487b7100000000000000000000000000000000000000000000000000000000600052603260045260246000fd5b7f4e487b7100000000000000000000000000000000000000000000000000000000600052601160045260246000fd5b60006121b882611e1d565b91506121c383611e1d565b92508282019050808211156121db576121da61217e565b5b92915050565b600082825260208201905092915050565b7f4c6f636b2074696d65206e6f7420737461727465640000000000000000000000600082015250565b60006122286015836121e1565b9150612233826121f2565b602082019050919050565b600060208201905081810360008301526122578161221b565b9050919050565b7f4c6f636b2074696d652068617320706173736564000000000000000000000000600082015250565b60006122946014836121e1565b915061229f8261225e565b602082019050919050565b600060208201905081810360008301526122c381612287565b9050919050565b7f4e6f206c6f636b65642062616c616e636520746f207769746864726177000000600082015250565b6000612300601d836121e1565b915061230b826122ca565b602082019050919050565b6000602082019050818103600083015261232f816122f3565b9050919050565b600060408201905061234b6000830185612062565b6123586020830184611e27565b9392505050565b61236881611de7565b811461237357600080fd5b50565b6000815190506123858161235f565b92915050565b6000602082840312156123a1576123a0611d5d565b5b60006123af84828501612376565b91505092915050565b7f5472616e73666572206661696c65640000000000000000000000000000000000600082015250565b60006123ee600f836121e1565b91506123f9826123b8565b602082019050919050565b6000602082019050818103600083015261241d816123e1565b9050919050565b7f436f6e66696775617274696f6e2063616e6e6f74206265206368616e6765642060008201527f6166746572207374617274696e67000000000000000000000000000000000000602082015250565b6000612480602e836121e1565b915061248b82612424565b604082019050919050565b600060208201905081810360008301526124af81612473565b9050919050565b7f4c6576656c2031207468726573686f6c64206d757374206265206c657373207460008201527f68616e206c6576656c2032207468726573686f6c640000000000000000000000602082015250565b60006125126035836121e1565b915061251d826124b6565b604082019050919050565b6000602082019050818103600083015261254181612505565b9050919050565b7f53746172742054696d652073686f756c64206265206561726c6965722074686160008201527f6e20656e642074696d6500000000000000000000000000000000000000000000602082015250565b60006125a4602a836121e1565b91506125af82612548565b604082019050919050565b600060208201905081810360008301526125d381612597565b9050919050565b7f456e642074696d652073686f756c6420626520696e2074686520667574757265600082015250565b60006126106020836121e1565b915061261b826125da565b602082019050919050565b6000602082019050818103600083015261263f81612603565b9050919050565b7f46756e6374696f6e2063616e206f6e6c792062652063616c6c6564206166746560008201527f7220656e642074696d6500000000000000000000000000000000000000000000602082015250565b60006126a2602a836121e1565b91506126ad82612646565b604082019050919050565b600060208201905081810360008301526126d181612695565b9050919050565b7f4e6f206c6f636b65642062616c616e636520746f20636c61696d20616e64207760008201527f6974686472617700000000000000000000000000000000000000000000000000602082015250565b60006127346027836121e1565b915061273f826126d8565b604082019050919050565b6000602082019050818103600083015261276381612727565b9050919050565b7f556e6465726c79696e67207472616e73666572206661696c6564000000000000600082015250565b60006127a0601a836121e1565b91506127ab8261276a565b602082019050919050565b600060208201905081810360008301526127cf81612793565b9050919050565b7f52657761726420746f6b656e207472616e73666572206661696c656400000000600082015250565b600061280c601c836121e1565b9150612817826127d6565b602082019050919050565b6000602082019050818103600083015261283b816127ff565b9050919050565b7f4c6576656c2031206c6f636b2074696d65206d757374206265206c657373207460008201527f68616e206c6576656c2032206c6f636b20646179730000000000000000000000602082015250565b600061289e6035836121e1565b91506128a982612842565b604082019050919050565b600060208201905081810360008301526128cd81612891565b9050919050565b7f416d6f756e74206d7573742062652067726561746572207468616e207a65726f600082015250565b600061290a6020836121e1565b9150612915826128d4565b602082019050919050565b60006020820190508181036000830152612939816128fd565b9050919050565b60006060820190506129556000830186612062565b6129626020830185612062565b61296f6040830184611e27565b949350505050565b600061298282611e1d565b91507fffffffffffffffffffffffffffffffffffffffffffffffffffffffffffffffff82036129b4576129b361217e565b5b600182019050919050565b600060ff82169050919050565b6129d5816129bf565b81146129e057600080fd5b50565b6000815190506129f2816129cc565b92915050565b600060208284031215612a0e57612a0d611d5d565b5b6000612a1c848285016129e3565b91505092915050565b60008160011c9050919050565b6000808291508390505b6001851115612a7c57808604811115612a5857612a5761217e565b5b6001851615612a675780820291505b8081029050612a7585612a25565b9450612a3c565b94509492505050565b600082612a955760019050612b51565b81612aa35760009050612b51565b8160018114612ab95760028114612ac357612af2565b6001915050612b51565b60ff841115612ad557612ad461217e565b5b8360020a915084821115612aec57612aeb61217e565b5b50612b51565b5060208310610133831016604e8410600b8410161715612b275782820a905083811115612b2257612b2161217e565b5b612b51565b612b348484846001612a32565b92509050818404811115612b4b57612b4a61217e565b5b81810290505b9392505050565b6000612b6382611e1d565b9150612b6e836129bf565b9250612b9b7fffffffffffffffffffffffffffffffffffffffffffffffffffffffffffffffff8484612a85565b905092915050565b6000612bae82611e1d565b9150612bb983611e1d565b9250828202612bc781611e1d565b91508282048414831517612bde57612bdd61217e565b5b5092915050565b7f4e487b7100000000000000000000000000000000000000000000000000000000600052601260045260246000fd5b6000612c1f82611e1d565b9150612c2a83611e1d565b925082612c3a57612c39612be5565b5b828204905092915050565b6000612c5082611e1d565b9150612c5b83611e1d565b9250828203905081811115612c7357612c7261217e565b5b92915050565b6000604082019050612c8e6000830185612062565b612c9b6020830184611eb4565b939250505056fea26469706673582212201b7b60c314174f13ef8185df801a4d22ef472beda848404c22f67a166cd4318e64736f6c63430008180033",
  "linkReferences": {},
  "deployedLinkReferences": {}
}